{
  "contractName": "Uranium42",
  "abi": [
    {
      "inputs": [
        {
          "internalType": "uint256",
          "name": "initialSupply",
          "type": "uint256"
        }
      ],
      "stateMutability": "nonpayable",
      "type": "constructor"
    },
    {
      "inputs": [
        {
          "internalType": "address",
          "name": "spender",
          "type": "address"
        },
        {
          "internalType": "uint256",
          "name": "allowance",
          "type": "uint256"
        },
        {
          "internalType": "uint256",
          "name": "needed",
          "type": "uint256"
        }
      ],
      "name": "ERC20InsufficientAllowance",
      "type": "error"
    },
    {
      "inputs": [
        {
          "internalType": "address",
          "name": "sender",
          "type": "address"
        },
        {
          "internalType": "uint256",
          "name": "balance",
          "type": "uint256"
        },
        {
          "internalType": "uint256",
          "name": "needed",
          "type": "uint256"
        }
      ],
      "name": "ERC20InsufficientBalance",
      "type": "error"
    },
    {
      "inputs": [
        {
          "internalType": "address",
          "name": "approver",
          "type": "address"
        }
      ],
      "name": "ERC20InvalidApprover",
      "type": "error"
    },
    {
      "inputs": [
        {
          "internalType": "address",
          "name": "receiver",
          "type": "address"
        }
      ],
      "name": "ERC20InvalidReceiver",
      "type": "error"
    },
    {
      "inputs": [
        {
          "internalType": "address",
          "name": "sender",
          "type": "address"
        }
      ],
      "name": "ERC20InvalidSender",
      "type": "error"
    },
    {
      "inputs": [
        {
          "internalType": "address",
          "name": "spender",
          "type": "address"
        }
      ],
      "name": "ERC20InvalidSpender",
      "type": "error"
    },
    {
      "inputs": [
        {
          "internalType": "address",
          "name": "owner",
          "type": "address"
        }
      ],
      "name": "OwnableInvalidOwner",
      "type": "error"
    },
    {
      "inputs": [
        {
          "internalType": "address",
          "name": "account",
          "type": "address"
        }
      ],
      "name": "OwnableUnauthorizedAccount",
      "type": "error"
    },
    {
      "anonymous": false,
      "inputs": [
        {
          "indexed": true,
          "internalType": "address",
          "name": "owner",
          "type": "address"
        },
        {
          "indexed": true,
          "internalType": "address",
          "name": "spender",
          "type": "address"
        },
        {
          "indexed": false,
          "internalType": "uint256",
          "name": "value",
          "type": "uint256"
        }
      ],
      "name": "Approval",
      "type": "event"
    },
    {
      "anonymous": false,
      "inputs": [],
      "name": "MintingFinished",
      "type": "event"
    },
    {
      "anonymous": false,
      "inputs": [
        {
          "indexed": true,
          "internalType": "address",
          "name": "previousOwner",
          "type": "address"
        },
        {
          "indexed": true,
          "internalType": "address",
          "name": "newOwner",
          "type": "address"
        }
      ],
      "name": "OwnershipTransferred",
      "type": "event"
    },
    {
      "anonymous": false,
      "inputs": [
        {
          "indexed": true,
          "internalType": "address",
          "name": "from",
          "type": "address"
        },
        {
          "indexed": false,
          "internalType": "uint256",
          "name": "amount",
          "type": "uint256"
        }
      ],
      "name": "TokensBurned",
      "type": "event"
    },
    {
      "anonymous": false,
      "inputs": [
        {
          "indexed": true,
          "internalType": "address",
          "name": "to",
          "type": "address"
        },
        {
          "indexed": false,
          "internalType": "uint256",
          "name": "amount",
          "type": "uint256"
        }
      ],
      "name": "TokensMinted",
      "type": "event"
    },
    {
      "anonymous": false,
      "inputs": [
        {
          "indexed": true,
          "internalType": "address",
          "name": "from",
          "type": "address"
        },
        {
          "indexed": true,
          "internalType": "address",
          "name": "to",
          "type": "address"
        },
        {
          "indexed": false,
          "internalType": "uint256",
          "name": "value",
          "type": "uint256"
        }
      ],
      "name": "Transfer",
      "type": "event"
    },
    {
      "inputs": [
        {
          "internalType": "address",
          "name": "owner",
          "type": "address"
        },
        {
          "internalType": "address",
          "name": "spender",
          "type": "address"
        }
      ],
      "name": "allowance",
      "outputs": [
        {
          "internalType": "uint256",
          "name": "",
          "type": "uint256"
        }
      ],
      "stateMutability": "view",
      "type": "function"
    },
    {
      "inputs": [
        {
          "internalType": "address",
          "name": "spender",
          "type": "address"
        },
        {
          "internalType": "uint256",
          "name": "value",
          "type": "uint256"
        }
      ],
      "name": "approve",
      "outputs": [
        {
          "internalType": "bool",
          "name": "",
          "type": "bool"
        }
      ],
      "stateMutability": "nonpayable",
      "type": "function"
    },
    {
      "inputs": [
        {
          "internalType": "address",
          "name": "account",
          "type": "address"
        }
      ],
      "name": "balanceOf",
      "outputs": [
        {
          "internalType": "uint256",
          "name": "",
          "type": "uint256"
        }
      ],
      "stateMutability": "view",
      "type": "function"
    },
    {
      "inputs": [],
      "name": "mintingFinished",
      "outputs": [
        {
          "internalType": "bool",
          "name": "",
          "type": "bool"
        }
      ],
      "stateMutability": "view",
      "type": "function"
    },
    {
      "inputs": [],
      "name": "name",
      "outputs": [
        {
          "internalType": "string",
          "name": "",
          "type": "string"
        }
      ],
      "stateMutability": "view",
      "type": "function"
    },
    {
      "inputs": [],
      "name": "owner",
      "outputs": [
        {
          "internalType": "address",
          "name": "",
          "type": "address"
        }
      ],
      "stateMutability": "view",
      "type": "function"
    },
    {
      "inputs": [],
      "name": "renounceOwnership",
      "outputs": [],
      "stateMutability": "nonpayable",
      "type": "function"
    },
    {
      "inputs": [],
      "name": "symbol",
      "outputs": [
        {
          "internalType": "string",
          "name": "",
          "type": "string"
        }
      ],
      "stateMutability": "view",
      "type": "function"
    },
    {
      "inputs": [],
      "name": "totalSupply",
      "outputs": [
        {
          "internalType": "uint256",
          "name": "",
          "type": "uint256"
        }
      ],
      "stateMutability": "view",
      "type": "function"
    },
    {
      "inputs": [
        {
          "internalType": "address",
          "name": "to",
          "type": "address"
        },
        {
          "internalType": "uint256",
          "name": "value",
          "type": "uint256"
        }
      ],
      "name": "transfer",
      "outputs": [
        {
          "internalType": "bool",
          "name": "",
          "type": "bool"
        }
      ],
      "stateMutability": "nonpayable",
      "type": "function"
    },
    {
      "inputs": [
        {
          "internalType": "address",
          "name": "from",
          "type": "address"
        },
        {
          "internalType": "address",
          "name": "to",
          "type": "address"
        },
        {
          "internalType": "uint256",
          "name": "value",
          "type": "uint256"
        }
      ],
      "name": "transferFrom",
      "outputs": [
        {
          "internalType": "bool",
          "name": "",
          "type": "bool"
        }
      ],
      "stateMutability": "nonpayable",
      "type": "function"
    },
    {
      "inputs": [
        {
          "internalType": "address",
          "name": "newOwner",
          "type": "address"
        }
      ],
      "name": "transferOwnership",
      "outputs": [],
      "stateMutability": "nonpayable",
      "type": "function"
    },
    {
      "inputs": [],
      "name": "decimals",
      "outputs": [
        {
          "internalType": "uint8",
          "name": "",
          "type": "uint8"
        }
      ],
      "stateMutability": "view",
      "type": "function"
    },
    {
      "inputs": [
        {
          "internalType": "address",
          "name": "to",
          "type": "address"
        },
        {
          "internalType": "uint256",
          "name": "amount",
          "type": "uint256"
        }
      ],
      "name": "mint",
      "outputs": [],
      "stateMutability": "nonpayable",
      "type": "function"
    },
    {
      "inputs": [
        {
          "internalType": "uint256",
          "name": "amount",
          "type": "uint256"
        }
      ],
      "name": "burn",
      "outputs": [],
      "stateMutability": "nonpayable",
      "type": "function"
    },
    {
      "inputs": [],
      "name": "finishMinting",
      "outputs": [],
      "stateMutability": "nonpayable",
      "type": "function"
    },
    {
      "inputs": [],
      "name": "maxSupply",
      "outputs": [
        {
          "internalType": "uint256",
          "name": "",
          "type": "uint256"
        }
      ],
      "stateMutability": "view",
      "type": "function"
    }
  ],
  "bytecode": "0x60806040526007805460ff19169055348015610019575f5ffd5b50604051611047380380611047833981016040819052610038916102e2565b33604051806040016040528060098152602001682ab930b734bab69a1960b91b815250604051806040016040528060038152602001622a9a1960e91b81525081600390816100869190610391565b5060046100938282610391565b5050506001600160a01b0381166100c457604051631e4fbdf760e01b81525f60048201526024015b60405180910390fd5b6100cd81610133565b506007805461ff00191661120017908190556100f39060ff61010090910416600a610544565b6100ff9061a410610559565b60065560075461012d90339061011e90610100900460ff16600a610544565b6101289084610559565b610184565b50610583565b600580546001600160a01b038381166001600160a01b0319831681179093556040519116919082907f8be0079c531659141344cd1fd0a4f28419497f9722a3daafe3b4186f6b6457e0905f90a35050565b6001600160a01b0382166101ad5760405163ec442f0560e01b81525f60048201526024016100bb565b6101b85f83836101bc565b5050565b6001600160a01b0383166101e6578060025f8282546101db9190610570565b909155506102569050565b6001600160a01b0383165f90815260208190526040902054818110156102385760405163391434e360e21b81526001600160a01b038516600482015260248101829052604481018390526064016100bb565b6001600160a01b0384165f9081526020819052604090209082900390555b6001600160a01b03821661027257600280548290039055610290565b6001600160a01b0382165f9081526020819052604090208054820190555b816001600160a01b0316836001600160a01b03167fddf252ad1be2c89b69c2b068fc378daa952ba7f163c4a11628f55a4df523b3ef836040516102d591815260200190565b60405180910390a3505050565b5f602082840312156102f2575f5ffd5b5051919050565b634e487b7160e01b5f52604160045260245ffd5b600181811c9082168061032157607f821691505b60208210810361033f57634e487b7160e01b5f52602260045260245ffd5b50919050565b601f82111561038c57805f5260205f20601f840160051c8101602085101561036a5750805b601f840160051c820191505b81811015610389575f8155600101610376565b50505b505050565b81516001600160401b038111156103aa576103aa6102f9565b6103be816103b8845461030d565b84610345565b6020601f8211600181146103f0575f83156103d95750848201515b5f19600385901b1c1916600184901b178455610389565b5f84815260208120601f198516915b8281101561041f57878501518255602094850194600190920191016103ff565b508482101561043c57868401515f19600387901b60f8161c191681555b50505050600190811b01905550565b634e487b7160e01b5f52601160045260245ffd5b6001815b600184111561049a5780850481111561047e5761047e61044b565b600184161561048c57908102905b60019390931c928002610463565b935093915050565b5f826104b05750600161053e565b816104bc57505f61053e565b81600181146104d257600281146104dc576104f8565b600191505061053e565b60ff8411156104ed576104ed61044b565b50506001821b61053e565b5060208310610133831016604e8410600b841016171561051b575081810a61053e565b6105275f19848461045f565b805f190482111561053a5761053a61044b565b0290505b92915050565b5f61055260ff8416836104a2565b9392505050565b808202811582820484141761053e5761053e61044b565b8082018082111561053e5761053e61044b565b610ab7806105905f395ff3fe608060405234801561000f575f5ffd5b5060043610610106575f3560e01c806370a082311161009e57806395d89b411161006e57806395d89b4114610211578063a9059cbb14610219578063d5abeb011461022c578063dd62ed3e14610234578063f2fde38b1461026c575f5ffd5b806370a08231146101be578063715018a6146101e65780637d64bcb4146101ee5780638da5cb5b146101f6575f5ffd5b806323b872dd116100d957806323b872dd14610166578063313ce5671461017957806340c10f191461019657806342966c68146101ab575f5ffd5b806305d2035b1461010a57806306fdde031461012c578063095ea7b31461014157806318160ddd14610154575b5f5ffd5b6007546101179060ff1681565b60405190151581526020015b60405180910390f35b61013461027f565b6040516101239190610910565b61011761014f366004610960565b61030f565b6002545b604051908152602001610123565b610117610174366004610988565b610328565b600754610100900460ff1660405160ff9091168152602001610123565b6101a96101a4366004610960565b61034b565b005b6101a96101b93660046109c2565b610457565b6101586101cc3660046109d9565b6001600160a01b03165f9081526020819052604090205490565b6101a9610499565b6101a96104ac565b6005546040516001600160a01b039091168152602001610123565b6101346104eb565b610117610227366004610960565b6104fa565b600654610158565b6101586102423660046109f9565b6001600160a01b039182165f90815260016020908152604080832093909416825291909152205490565b6101a961027a3660046109d9565b610507565b60606003805461028e90610a2a565b80601f01602080910402602001604051908101604052809291908181526020018280546102ba90610a2a565b80156103055780601f106102dc57610100808354040283529160200191610305565b820191905f5260205f20905b8154815290600101906020018083116102e857829003601f168201915b5050505050905090565b5f3361031c818585610544565b60019150505b92915050565b5f33610335858285610556565b6103408585856105d1565b506001949350505050565b61035361062e565b60075460ff16156103a15760405162461bcd60e51b8152602060048201526013602482015272135a5b9d1a5b99c81a5cc8199a5b9a5cda1959606a1b60448201526064015b60405180910390fd5b600654816103ae60025490565b6103b89190610a62565b11156104065760405162461bcd60e51b815260206004820152601760248201527f576f756c6420657863656564206d617820737570706c790000000000000000006044820152606401610398565b610410828261065b565b816001600160a01b03167f3f2c9d57c068687834f0de942a9babb9e5acab57d516d3480a3c16ee165a42738260405161044b91815260200190565b60405180910390a25050565b6104613382610693565b60405181815233907ffd38818f5291bf0bb3a2a48aadc06ba8757865d1dabd804585338aab3009dcb69060200160405180910390a250565b6104a161062e565b6104aa5f6106c7565b565b6104b461062e565b6007805460ff191660011790556040517fb828d9b5c78095deeeeff2eca2e5d4fe046ce3feb4c99702624a3fd384ad2dbc905f90a1565b60606004805461028e90610a2a565b5f3361031c8185856105d1565b61050f61062e565b6001600160a01b03811661053857604051631e4fbdf760e01b81525f6004820152602401610398565b610541816106c7565b50565b6105518383836001610718565b505050565b6001600160a01b038381165f908152600160209081526040808320938616835292905220545f1981146105cb57818110156105bd57604051637dc7a0d960e11b81526001600160a01b03841660048201526024810182905260448101839052606401610398565b6105cb84848484035f610718565b50505050565b6001600160a01b0383166105fa57604051634b637e8f60e11b81525f6004820152602401610398565b6001600160a01b0382166106235760405163ec442f0560e01b81525f6004820152602401610398565b6105518383836107ea565b6005546001600160a01b031633146104aa5760405163118cdaa760e01b8152336004820152602401610398565b6001600160a01b0382166106845760405163ec442f0560e01b81525f6004820152602401610398565b61068f5f83836107ea565b5050565b6001600160a01b0382166106bc57604051634b637e8f60e11b81525f6004820152602401610398565b61068f825f836107ea565b600580546001600160a01b038381166001600160a01b0319831681179093556040519116919082907f8be0079c531659141344cd1fd0a4f28419497f9722a3daafe3b4186f6b6457e0905f90a35050565b6001600160a01b0384166107415760405163e602df0560e01b81525f6004820152602401610398565b6001600160a01b03831661076a57604051634a1406b160e11b81525f6004820152602401610398565b6001600160a01b038085165f90815260016020908152604080832093871683529290522082905580156105cb57826001600160a01b0316846001600160a01b03167f8c5be1e5ebec7d5bd14f71427d1e84f3dd0314c0f7b2291e5b200ac8c7c3b925846040516107dc91815260200190565b60405180910390a350505050565b6001600160a01b038316610814578060025f8282546108099190610a62565b909155506108849050565b6001600160a01b0383165f90815260208190526040902054818110156108665760405163391434e360e21b81526001600160a01b03851660048201526024810182905260448101839052606401610398565b6001600160a01b0384165f9081526020819052604090209082900390555b6001600160a01b0382166108a0576002805482900390556108be565b6001600160a01b0382165f9081526020819052604090208054820190555b816001600160a01b0316836001600160a01b03167fddf252ad1be2c89b69c2b068fc378daa952ba7f163c4a11628f55a4df523b3ef8360405161090391815260200190565b60405180910390a3505050565b602081525f82518060208401528060208501604085015e5f604082850101526040601f19601f83011684010191505092915050565b80356001600160a01b038116811461095b575f5ffd5b919050565b5f5f60408385031215610971575f5ffd5b61097a83610945565b946020939093013593505050565b5f5f5f6060848603121561099a575f5ffd5b6109a384610945565b92506109b160208501610945565b929592945050506040919091013590565b5f602082840312156109d2575f5ffd5b5035919050565b5f602082840312156109e9575f5ffd5b6109f282610945565b9392505050565b5f5f60408385031215610a0a575f5ffd5b610a1383610945565b9150610a2160208401610945565b90509250929050565b600181811c90821680610a3e57607f821691505b602082108103610a5c57634e487b7160e01b5f52602260045260245ffd5b50919050565b8082018082111561032257634e487b7160e01b5f52601160045260245ffdfea2646970667358221220628c6497455547abf13a456893ddcb4dd6187bcb024ee7cfc200cb8d875241f364736f6c634300081c0033",
  "immutableReferences": {},
  "source": "// SPDX-License-Identifier: MIT\npragma solidity ^0.8.0;\n\nimport \"@openzeppelin/contracts/token/ERC20/ERC20.sol\";\nimport \"@openzeppelin/contracts/access/Ownable.sol\";\n\ncontract Uranium42 is ERC20, Ownable {\n    uint256 private _maxSupply;\n    bool public mintingFinished = false;\n    uint8 private _decimals;\n\n    event MintingFinished();\n    event TokensMinted(address indexed to, uint256 amount);\n    event TokensBurned(address indexed from, uint256 amount);\n\n    constructor(uint256 initialSupply) \n        ERC20(\"Uranium42\", \"U42\") \n        Ownable(msg.sender)  \n    {\n        _decimals = 18;\n        _maxSupply = 42000 * 10**_decimals;\n        _mint(msg.sender, initialSupply * 10**_decimals);\n    }\n\n    function decimals() public view virtual override returns (uint8) {\n        return _decimals;\n    }\n\n    function mint(address to, uint256 amount) public onlyOwner {\n        require(!mintingFinished, \"Minting is finished\");\n        require(totalSupply() + amount <= _maxSupply, \"Would exceed max supply\");\n        _mint(to, amount);\n        emit TokensMinted(to, amount);\n    }\n\n    function burn(uint256 amount) public {\n        _burn(msg.sender, amount);\n        emit TokensBurned(msg.sender, amount);\n    }\n\n    function finishMinting() public onlyOwner {\n        mintingFinished = true;\n        emit MintingFinished();\n    }\n\n    function maxSupply() public view returns (uint256) {\n        return _maxSupply;\n    }\n}",
  "sourcePath": "/Users/feliciencatteau/Documents/42/Tokenizer/code/contracts/Uranium42.sol",
  "compiler": {
    "name": "solc",
    "version": "0.8.28+commit.7893614a.Emscripten.clang"
  },
  "schemaVersion": "3.4.16",
  "updatedAt": "2024-12-11T16:42:31.874Z",
  "devdoc": {
    "errors": {
      "ERC20InsufficientAllowance(address,uint256,uint256)": [
        {
          "details": "Indicates a failure with the `spender`s `allowance`. Used in transfers.",
          "params": {
            "allowance": "Amount of tokens a `spender` is allowed to operate with.",
            "needed": "Minimum amount required to perform a transfer.",
            "spender": "Address that may be allowed to operate on tokens without being their owner."
          }
        }
      ],
      "ERC20InsufficientBalance(address,uint256,uint256)": [
        {
          "details": "Indicates an error related to the current `balance` of a `sender`. Used in transfers.",
          "params": {
            "balance": "Current balance for the interacting account.",
            "needed": "Minimum amount required to perform a transfer.",
            "sender": "Address whose tokens are being transferred."
          }
        }
      ],
      "ERC20InvalidApprover(address)": [
        {
          "details": "Indicates a failure with the `approver` of a token to be approved. Used in approvals.",
          "params": {
            "approver": "Address initiating an approval operation."
          }
        }
      ],
      "ERC20InvalidReceiver(address)": [
        {
          "details": "Indicates a failure with the token `receiver`. Used in transfers.",
          "params": {
            "receiver": "Address to which tokens are being transferred."
          }
        }
      ],
      "ERC20InvalidSender(address)": [
        {
          "details": "Indicates a failure with the token `sender`. Used in transfers.",
          "params": {
            "sender": "Address whose tokens are being transferred."
          }
        }
      ],
      "ERC20InvalidSpender(address)": [
        {
          "details": "Indicates a failure with the `spender` to be approved. Used in approvals.",
          "params": {
            "spender": "Address that may be allowed to operate on tokens without being their owner."
          }
        }
      ],
      "OwnableInvalidOwner(address)": [
        {
          "details": "The owner is not a valid owner account. (eg. `address(0)`)"
        }
      ],
      "OwnableUnauthorizedAccount(address)": [
        {
          "details": "The caller account is not authorized to perform an operation."
        }
      ]
    },
    "events": {
      "Approval(address,address,uint256)": {
        "details": "Emitted when the allowance of a `spender` for an `owner` is set by a call to {approve}. `value` is the new allowance."
      },
      "Transfer(address,address,uint256)": {
        "details": "Emitted when `value` tokens are moved from one account (`from`) to another (`to`). Note that `value` may be zero."
      }
    },
    "kind": "dev",
    "methods": {
      "allowance(address,address)": {
        "details": "See {IERC20-allowance}."
      },
      "approve(address,uint256)": {
        "details": "See {IERC20-approve}. NOTE: If `value` is the maximum `uint256`, the allowance is not updated on `transferFrom`. This is semantically equivalent to an infinite approval. Requirements: - `spender` cannot be the zero address."
      },
      "balanceOf(address)": {
        "details": "See {IERC20-balanceOf}."
      },
      "decimals()": {
        "details": "Returns the number of decimals used to get its user representation. For example, if `decimals` equals `2`, a balance of `505` tokens should be displayed to a user as `5.05` (`505 / 10 ** 2`). Tokens usually opt for a value of 18, imitating the relationship between Ether and Wei. This is the default value returned by this function, unless it's overridden. NOTE: This information is only used for _display_ purposes: it in no way affects any of the arithmetic of the contract, including {IERC20-balanceOf} and {IERC20-transfer}."
      },
      "name()": {
        "details": "Returns the name of the token."
      },
      "owner()": {
        "details": "Returns the address of the current owner."
      },
      "renounceOwnership()": {
        "details": "Leaves the contract without owner. It will not be possible to call `onlyOwner` functions. Can only be called by the current owner. NOTE: Renouncing ownership will leave the contract without an owner, thereby disabling any functionality that is only available to the owner."
      },
      "symbol()": {
        "details": "Returns the symbol of the token, usually a shorter version of the name."
      },
      "totalSupply()": {
        "details": "See {IERC20-totalSupply}."
      },
      "transfer(address,uint256)": {
        "details": "See {IERC20-transfer}. Requirements: - `to` cannot be the zero address. - the caller must have a balance of at least `value`."
      },
      "transferFrom(address,address,uint256)": {
        "details": "See {IERC20-transferFrom}. Skips emitting an {Approval} event indicating an allowance update. This is not required by the ERC. See {xref-ERC20-_approve-address-address-uint256-bool-}[_approve]. NOTE: Does not update the allowance if the current allowance is the maximum `uint256`. Requirements: - `from` and `to` cannot be the zero address. - `from` must have a balance of at least `value`. - the caller must have allowance for ``from``'s tokens of at least `value`."
      },
      "transferOwnership(address)": {
        "details": "Transfers ownership of the contract to a new account (`newOwner`). Can only be called by the current owner."
      }
    },
    "version": 1
  },
  "userdoc": {
    "kind": "user",
    "methods": {},
    "version": 1
  }
}