{
  "contractName": "Uranium42",
  "abi": [
    {
      "inputs": [
        {
          "internalType": "uint256",
          "name": "initialSupply",
          "type": "uint256"
        }
      ],
      "stateMutability": "nonpayable",
      "type": "constructor"
    },
    {
      "inputs": [
        {
          "internalType": "address",
          "name": "spender",
          "type": "address"
        },
        {
          "internalType": "uint256",
          "name": "allowance",
          "type": "uint256"
        },
        {
          "internalType": "uint256",
          "name": "needed",
          "type": "uint256"
        }
      ],
      "name": "ERC20InsufficientAllowance",
      "type": "error"
    },
    {
      "inputs": [
        {
          "internalType": "address",
          "name": "sender",
          "type": "address"
        },
        {
          "internalType": "uint256",
          "name": "balance",
          "type": "uint256"
        },
        {
          "internalType": "uint256",
          "name": "needed",
          "type": "uint256"
        }
      ],
      "name": "ERC20InsufficientBalance",
      "type": "error"
    },
    {
      "inputs": [
        {
          "internalType": "address",
          "name": "approver",
          "type": "address"
        }
      ],
      "name": "ERC20InvalidApprover",
      "type": "error"
    },
    {
      "inputs": [
        {
          "internalType": "address",
          "name": "receiver",
          "type": "address"
        }
      ],
      "name": "ERC20InvalidReceiver",
      "type": "error"
    },
    {
      "inputs": [
        {
          "internalType": "address",
          "name": "sender",
          "type": "address"
        }
      ],
      "name": "ERC20InvalidSender",
      "type": "error"
    },
    {
      "inputs": [
        {
          "internalType": "address",
          "name": "spender",
          "type": "address"
        }
      ],
      "name": "ERC20InvalidSpender",
      "type": "error"
    },
    {
      "inputs": [
        {
          "internalType": "address",
          "name": "owner",
          "type": "address"
        }
      ],
      "name": "OwnableInvalidOwner",
      "type": "error"
    },
    {
      "inputs": [
        {
          "internalType": "address",
          "name": "account",
          "type": "address"
        }
      ],
      "name": "OwnableUnauthorizedAccount",
      "type": "error"
    },
    {
      "anonymous": false,
      "inputs": [
        {
          "indexed": true,
          "internalType": "address",
          "name": "owner",
          "type": "address"
        },
        {
          "indexed": true,
          "internalType": "address",
          "name": "spender",
          "type": "address"
        },
        {
          "indexed": false,
          "internalType": "uint256",
          "name": "value",
          "type": "uint256"
        }
      ],
      "name": "Approval",
      "type": "event"
    },
    {
      "anonymous": false,
      "inputs": [],
      "name": "MintingFinished",
      "type": "event"
    },
    {
      "anonymous": false,
      "inputs": [
        {
          "indexed": true,
          "internalType": "address",
          "name": "previousOwner",
          "type": "address"
        },
        {
          "indexed": true,
          "internalType": "address",
          "name": "newOwner",
          "type": "address"
        }
      ],
      "name": "OwnershipTransferred",
      "type": "event"
    },
    {
      "anonymous": false,
      "inputs": [
        {
          "indexed": true,
          "internalType": "address",
          "name": "from",
          "type": "address"
        },
        {
          "indexed": false,
          "internalType": "uint256",
          "name": "amount",
          "type": "uint256"
        }
      ],
      "name": "TokensBurned",
      "type": "event"
    },
    {
      "anonymous": false,
      "inputs": [
        {
          "indexed": true,
          "internalType": "address",
          "name": "to",
          "type": "address"
        },
        {
          "indexed": false,
          "internalType": "uint256",
          "name": "amount",
          "type": "uint256"
        }
      ],
      "name": "TokensMinted",
      "type": "event"
    },
    {
      "anonymous": false,
      "inputs": [
        {
          "indexed": true,
          "internalType": "address",
          "name": "from",
          "type": "address"
        },
        {
          "indexed": true,
          "internalType": "address",
          "name": "to",
          "type": "address"
        },
        {
          "indexed": false,
          "internalType": "uint256",
          "name": "value",
          "type": "uint256"
        }
      ],
      "name": "Transfer",
      "type": "event"
    },
    {
      "inputs": [
        {
          "internalType": "address",
          "name": "owner",
          "type": "address"
        },
        {
          "internalType": "address",
          "name": "spender",
          "type": "address"
        }
      ],
      "name": "allowance",
      "outputs": [
        {
          "internalType": "uint256",
          "name": "",
          "type": "uint256"
        }
      ],
      "stateMutability": "view",
      "type": "function",
      "constant": true
    },
    {
      "inputs": [
        {
          "internalType": "address",
          "name": "spender",
          "type": "address"
        },
        {
          "internalType": "uint256",
          "name": "value",
          "type": "uint256"
        }
      ],
      "name": "approve",
      "outputs": [
        {
          "internalType": "bool",
          "name": "",
          "type": "bool"
        }
      ],
      "stateMutability": "nonpayable",
      "type": "function"
    },
    {
      "inputs": [
        {
          "internalType": "address",
          "name": "account",
          "type": "address"
        }
      ],
      "name": "balanceOf",
      "outputs": [
        {
          "internalType": "uint256",
          "name": "",
          "type": "uint256"
        }
      ],
      "stateMutability": "view",
      "type": "function",
      "constant": true
    },
    {
      "inputs": [],
      "name": "mintingFinished",
      "outputs": [
        {
          "internalType": "bool",
          "name": "",
          "type": "bool"
        }
      ],
      "stateMutability": "view",
      "type": "function",
      "constant": true
    },
    {
      "inputs": [],
      "name": "name",
      "outputs": [
        {
          "internalType": "string",
          "name": "",
          "type": "string"
        }
      ],
      "stateMutability": "view",
      "type": "function",
      "constant": true
    },
    {
      "inputs": [],
      "name": "owner",
      "outputs": [
        {
          "internalType": "address",
          "name": "",
          "type": "address"
        }
      ],
      "stateMutability": "view",
      "type": "function",
      "constant": true
    },
    {
      "inputs": [],
      "name": "renounceOwnership",
      "outputs": [],
      "stateMutability": "nonpayable",
      "type": "function"
    },
    {
      "inputs": [],
      "name": "symbol",
      "outputs": [
        {
          "internalType": "string",
          "name": "",
          "type": "string"
        }
      ],
      "stateMutability": "view",
      "type": "function",
      "constant": true
    },
    {
      "inputs": [],
      "name": "totalSupply",
      "outputs": [
        {
          "internalType": "uint256",
          "name": "",
          "type": "uint256"
        }
      ],
      "stateMutability": "view",
      "type": "function",
      "constant": true
    },
    {
      "inputs": [
        {
          "internalType": "address",
          "name": "to",
          "type": "address"
        },
        {
          "internalType": "uint256",
          "name": "value",
          "type": "uint256"
        }
      ],
      "name": "transfer",
      "outputs": [
        {
          "internalType": "bool",
          "name": "",
          "type": "bool"
        }
      ],
      "stateMutability": "nonpayable",
      "type": "function"
    },
    {
      "inputs": [
        {
          "internalType": "address",
          "name": "from",
          "type": "address"
        },
        {
          "internalType": "address",
          "name": "to",
          "type": "address"
        },
        {
          "internalType": "uint256",
          "name": "value",
          "type": "uint256"
        }
      ],
      "name": "transferFrom",
      "outputs": [
        {
          "internalType": "bool",
          "name": "",
          "type": "bool"
        }
      ],
      "stateMutability": "nonpayable",
      "type": "function"
    },
    {
      "inputs": [
        {
          "internalType": "address",
          "name": "newOwner",
          "type": "address"
        }
      ],
      "name": "transferOwnership",
      "outputs": [],
      "stateMutability": "nonpayable",
      "type": "function"
    },
    {
      "inputs": [],
      "name": "decimals",
      "outputs": [
        {
          "internalType": "uint8",
          "name": "",
          "type": "uint8"
        }
      ],
      "stateMutability": "pure",
      "type": "function",
      "constant": true
    },
    {
      "inputs": [
        {
          "internalType": "address",
          "name": "to",
          "type": "address"
        },
        {
          "internalType": "uint256",
          "name": "amount",
          "type": "uint256"
        }
      ],
      "name": "mint",
      "outputs": [],
      "stateMutability": "nonpayable",
      "type": "function"
    },
    {
      "inputs": [
        {
          "internalType": "uint256",
          "name": "amount",
          "type": "uint256"
        }
      ],
      "name": "burn",
      "outputs": [],
      "stateMutability": "nonpayable",
      "type": "function"
    },
    {
      "inputs": [],
      "name": "finishMinting",
      "outputs": [],
      "stateMutability": "nonpayable",
      "type": "function"
    },
    {
      "inputs": [],
      "name": "maxSupply",
      "outputs": [
        {
          "internalType": "uint256",
          "name": "",
          "type": "uint256"
        }
      ],
      "stateMutability": "view",
      "type": "function",
      "constant": true
    }
  ],
  "bytecode": "0x60806040525f60075f6101000a81548160ff02191690831515021790555034801562000029575f80fd5b50604051620021383803806200213883398181016040528101906200004f919062000592565b336040518060400160405280600981526020017f5572616e69756d343200000000000000000000000000000000000000000000008152506040518060400160405280600381526020017f55343200000000000000000000000000000000000000000000000000000000008152508160039081620000cd91906200081d565b508060049081620000df91906200081d565b5050505f73ffffffffffffffffffffffffffffffffffffffff168173ffffffffffffffffffffffffffffffffffffffff160362000155575f6040517f1e4fbdf70000000000000000000000000000000000000000000000000000000081526004016200014c919062000944565b60405180910390fd5b6200016681620001dd60201b60201c565b5062000177620002a060201b60201c565b600a62000185919062000ae8565b61a41062000194919062000b38565b600681905550620001d633620001af620002a060201b60201c565b600a620001bd919062000ae8565b83620001ca919062000b38565b620002a860201b60201c565b5062000c23565b5f60055f9054906101000a900473ffffffffffffffffffffffffffffffffffffffff1690508160055f6101000a81548173ffffffffffffffffffffffffffffffffffffffff021916908373ffffffffffffffffffffffffffffffffffffffff1602179055508173ffffffffffffffffffffffffffffffffffffffff168173ffffffffffffffffffffffffffffffffffffffff167f8be0079c531659141344cd1fd0a4f28419497f9722a3daafe3b4186f6b6457e060405160405180910390a35050565b5f6012905090565b5f73ffffffffffffffffffffffffffffffffffffffff168273ffffffffffffffffffffffffffffffffffffffff16036200031b575f6040517fec442f0500000000000000000000000000000000000000000000000000000000815260040162000312919062000944565b60405180910390fd5b6200032e5f83836200033260201b60201c565b5050565b5f73ffffffffffffffffffffffffffffffffffffffff168373ffffffffffffffffffffffffffffffffffffffff160362000386578060025f82825462000379919062000b82565b9250508190555062000457565b5f805f8573ffffffffffffffffffffffffffffffffffffffff1673ffffffffffffffffffffffffffffffffffffffff1681526020019081526020015f205490508181101562000412578381836040517fe450d38c000000000000000000000000000000000000000000000000000000008152600401620004099392919062000bcd565b60405180910390fd5b8181035f808673ffffffffffffffffffffffffffffffffffffffff1673ffffffffffffffffffffffffffffffffffffffff1681526020019081526020015f2081905550505b5f73ffffffffffffffffffffffffffffffffffffffff168273ffffffffffffffffffffffffffffffffffffffff1603620004a0578060025f8282540392505081905550620004ea565b805f808473ffffffffffffffffffffffffffffffffffffffff1673ffffffffffffffffffffffffffffffffffffffff1681526020019081526020015f205f82825401925050819055505b8173ffffffffffffffffffffffffffffffffffffffff168373ffffffffffffffffffffffffffffffffffffffff167fddf252ad1be2c89b69c2b068fc378daa952ba7f163c4a11628f55a4df523b3ef8360405162000549919062000c08565b60405180910390a3505050565b5f80fd5b5f819050919050565b6200056e816200055a565b811462000579575f80fd5b50565b5f815190506200058c8162000563565b92915050565b5f60208284031215620005aa57620005a962000556565b5b5f620005b9848285016200057c565b91505092915050565b5f81519050919050565b7f4e487b71000000000000000000000000000000000000000000000000000000005f52604160045260245ffd5b7f4e487b71000000000000000000000000000000000000000000000000000000005f52602260045260245ffd5b5f60028204905060018216806200063e57607f821691505b602082108103620006545762000653620005f9565b5b50919050565b5f819050815f5260205f209050919050565b5f6020601f8301049050919050565b5f82821b905092915050565b5f60088302620006b87fffffffffffffffffffffffffffffffffffffffffffffffffffffffffffffffff826200067b565b620006c486836200067b565b95508019841693508086168417925050509392505050565b5f819050919050565b5f62000705620006ff620006f9846200055a565b620006dc565b6200055a565b9050919050565b5f819050919050565b6200072083620006e5565b620007386200072f826200070c565b84845462000687565b825550505050565b5f90565b6200074e62000740565b6200075b81848462000715565b505050565b5b818110156200078257620007765f8262000744565b60018101905062000761565b5050565b601f821115620007d1576200079b816200065a565b620007a6846200066c565b81016020851015620007b6578190505b620007ce620007c5856200066c565b83018262000760565b50505b505050565b5f82821c905092915050565b5f620007f35f1984600802620007d6565b1980831691505092915050565b5f6200080d8383620007e2565b9150826002028217905092915050565b6200082882620005c2565b67ffffffffffffffff811115620008445762000843620005cc565b5b62000850825462000626565b6200085d82828562000786565b5f60209050601f83116001811462000893575f84156200087e578287015190505b6200088a858262000800565b865550620008f9565b601f198416620008a3866200065a565b5f5b82811015620008cc57848901518255600182019150602085019450602081019050620008a5565b86831015620008ec5784890151620008e8601f891682620007e2565b8355505b6001600288020188555050505b505050505050565b5f73ffffffffffffffffffffffffffffffffffffffff82169050919050565b5f6200092c8262000901565b9050919050565b6200093e8162000920565b82525050565b5f602082019050620009595f83018462000933565b92915050565b7f4e487b71000000000000000000000000000000000000000000000000000000005f52601160045260245ffd5b5f8160011c9050919050565b5f808291508390505b6001851115620009e957808604811115620009c157620009c06200095f565b5b6001851615620009d15780820291505b8081029050620009e1856200098c565b9450620009a1565b94509492505050565b5f8262000a03576001905062000ad5565b8162000a12575f905062000ad5565b816001811462000a2b576002811462000a365762000a6c565b600191505062000ad5565b60ff84111562000a4b5762000a4a6200095f565b5b8360020a91508482111562000a655762000a646200095f565b5b5062000ad5565b5060208310610133831016604e8410600b841016171562000aa65782820a90508381111562000aa05762000a9f6200095f565b5b62000ad5565b62000ab5848484600162000998565b9250905081840481111562000acf5762000ace6200095f565b5b81810290505b9392505050565b5f60ff82169050919050565b5f62000af4826200055a565b915062000b018362000adc565b925062000b307fffffffffffffffffffffffffffffffffffffffffffffffffffffffffffffffff8484620009f2565b905092915050565b5f62000b44826200055a565b915062000b51836200055a565b925082820262000b61816200055a565b9150828204841483151762000b7b5762000b7a6200095f565b5b5092915050565b5f62000b8e826200055a565b915062000b9b836200055a565b925082820190508082111562000bb65762000bb56200095f565b5b92915050565b62000bc7816200055a565b82525050565b5f60608201905062000be25f83018662000933565b62000bf1602083018562000bbc565b62000c00604083018462000bbc565b949350505050565b5f60208201905062000c1d5f83018462000bbc565b92915050565b6115078062000c315f395ff3fe608060405234801561000f575f80fd5b5060043610610109575f3560e01c806370a08231116100a057806395d89b411161006f57806395d89b411461027f578063a9059cbb1461029d578063d5abeb01146102cd578063dd62ed3e146102eb578063f2fde38b1461031b57610109565b806370a082311461021d578063715018a61461024d5780637d64bcb4146102575780638da5cb5b1461026157610109565b806323b872dd116100dc57806323b872dd14610197578063313ce567146101c757806340c10f19146101e557806342966c681461020157610109565b806305d2035b1461010d57806306fdde031461012b578063095ea7b31461014957806318160ddd14610179575b5f80fd5b610115610337565b6040516101229190611015565b60405180910390f35b610133610349565b60405161014091906110b8565b60405180910390f35b610163600480360381019061015e9190611169565b6103d9565b6040516101709190611015565b60405180910390f35b6101816103fb565b60405161018e91906111b6565b60405180910390f35b6101b160048036038101906101ac91906111cf565b610404565b6040516101be9190611015565b60405180910390f35b6101cf610432565b6040516101dc919061123a565b60405180910390f35b6101ff60048036038101906101fa9190611169565b61043a565b005b61021b60048036038101906102169190611253565b610544565b005b6102376004803603810190610232919061127e565b61059f565b60405161024491906111b6565b60405180910390f35b6102556105e4565b005b61025f6105f7565b005b610269610647565b60405161027691906112b8565b60405180910390f35b61028761066f565b60405161029491906110b8565b60405180910390f35b6102b760048036038101906102b29190611169565b6106ff565b6040516102c49190611015565b60405180910390f35b6102d5610721565b6040516102e291906111b6565b60405180910390f35b610305600480360381019061030091906112d1565b61072a565b60405161031291906111b6565b60405180910390f35b6103356004803603810190610330919061127e565b6107ac565b005b60075f9054906101000a900460ff1681565b6060600380546103589061133c565b80601f01602080910402602001604051908101604052809291908181526020018280546103849061133c565b80156103cf5780601f106103a6576101008083540402835291602001916103cf565b820191905f5260205f20905b8154815290600101906020018083116103b257829003601f168201915b5050505050905090565b5f806103e3610830565b90506103f0818585610837565b600191505092915050565b5f600254905090565b5f8061040e610830565b905061041b858285610849565b6104268585856108db565b60019150509392505050565b5f6012905090565b6104426109cb565b60075f9054906101000a900460ff1615610491576040517f08c379a0000000000000000000000000000000000000000000000000000000008152600401610488906113b6565b60405180910390fd5b6006548161049d6103fb565b6104a79190611401565b11156104e8576040517f08c379a00000000000000000000000000000000000000000000000000000000081526004016104df9061147e565b60405180910390fd5b6104f28282610a52565b8173ffffffffffffffffffffffffffffffffffffffff167f3f2c9d57c068687834f0de942a9babb9e5acab57d516d3480a3c16ee165a42738260405161053891906111b6565b60405180910390a25050565b61054e3382610ad1565b3373ffffffffffffffffffffffffffffffffffffffff167ffd38818f5291bf0bb3a2a48aadc06ba8757865d1dabd804585338aab3009dcb68260405161059491906111b6565b60405180910390a250565b5f805f8373ffffffffffffffffffffffffffffffffffffffff1673ffffffffffffffffffffffffffffffffffffffff1681526020019081526020015f20549050919050565b6105ec6109cb565b6105f55f610b50565b565b6105ff6109cb565b600160075f6101000a81548160ff0219169083151502179055507fb828d9b5c78095deeeeff2eca2e5d4fe046ce3feb4c99702624a3fd384ad2dbc60405160405180910390a1565b5f60055f9054906101000a900473ffffffffffffffffffffffffffffffffffffffff16905090565b60606004805461067e9061133c565b80601f01602080910402602001604051908101604052809291908181526020018280546106aa9061133c565b80156106f55780601f106106cc576101008083540402835291602001916106f5565b820191905f5260205f20905b8154815290600101906020018083116106d857829003601f168201915b5050505050905090565b5f80610709610830565b90506107168185856108db565b600191505092915050565b5f600654905090565b5f60015f8473ffffffffffffffffffffffffffffffffffffffff1673ffffffffffffffffffffffffffffffffffffffff1681526020019081526020015f205f8373ffffffffffffffffffffffffffffffffffffffff1673ffffffffffffffffffffffffffffffffffffffff1681526020019081526020015f2054905092915050565b6107b46109cb565b5f73ffffffffffffffffffffffffffffffffffffffff168173ffffffffffffffffffffffffffffffffffffffff1603610824575f6040517f1e4fbdf700000000000000000000000000000000000000000000000000000000815260040161081b91906112b8565b60405180910390fd5b61082d81610b50565b50565b5f33905090565b6108448383836001610c13565b505050565b5f610854848461072a565b90507fffffffffffffffffffffffffffffffffffffffffffffffffffffffffffffffff81146108d557818110156108c6578281836040517ffb8f41b20000000000000000000000000000000000000000000000000000000081526004016108bd9392919061149c565b60405180910390fd5b6108d484848484035f610c13565b5b50505050565b5f73ffffffffffffffffffffffffffffffffffffffff168373ffffffffffffffffffffffffffffffffffffffff160361094b575f6040517f96c6fd1e00000000000000000000000000000000000000000000000000000000815260040161094291906112b8565b60405180910390fd5b5f73ffffffffffffffffffffffffffffffffffffffff168273ffffffffffffffffffffffffffffffffffffffff16036109bb575f6040517fec442f050000000000000000000000000000000000000000000000000000000081526004016109b291906112b8565b60405180910390fd5b6109c6838383610de2565b505050565b6109d3610830565b73ffffffffffffffffffffffffffffffffffffffff166109f1610647565b73ffffffffffffffffffffffffffffffffffffffff1614610a5057610a14610830565b6040517f118cdaa7000000000000000000000000000000000000000000000000000000008152600401610a4791906112b8565b60405180910390fd5b565b5f73ffffffffffffffffffffffffffffffffffffffff168273ffffffffffffffffffffffffffffffffffffffff1603610ac2575f6040517fec442f05000000000000000000000000000000000000000000000000000000008152600401610ab991906112b8565b60405180910390fd5b610acd5f8383610de2565b5050565b5f73ffffffffffffffffffffffffffffffffffffffff168273ffffffffffffffffffffffffffffffffffffffff1603610b41575f6040517f96c6fd1e000000000000000000000000000000000000000000000000000000008152600401610b3891906112b8565b60405180910390fd5b610b4c825f83610de2565b5050565b5f60055f9054906101000a900473ffffffffffffffffffffffffffffffffffffffff1690508160055f6101000a81548173ffffffffffffffffffffffffffffffffffffffff021916908373ffffffffffffffffffffffffffffffffffffffff1602179055508173ffffffffffffffffffffffffffffffffffffffff168173ffffffffffffffffffffffffffffffffffffffff167f8be0079c531659141344cd1fd0a4f28419497f9722a3daafe3b4186f6b6457e060405160405180910390a35050565b5f73ffffffffffffffffffffffffffffffffffffffff168473ffffffffffffffffffffffffffffffffffffffff1603610c83575f6040517fe602df05000000000000000000000000000000000000000000000000000000008152600401610c7a91906112b8565b60405180910390fd5b5f73ffffffffffffffffffffffffffffffffffffffff168373ffffffffffffffffffffffffffffffffffffffff1603610cf3575f6040517f94280d62000000000000000000000000000000000000000000000000000000008152600401610cea91906112b8565b60405180910390fd5b8160015f8673ffffffffffffffffffffffffffffffffffffffff1673ffffffffffffffffffffffffffffffffffffffff1681526020019081526020015f205f8573ffffffffffffffffffffffffffffffffffffffff1673ffffffffffffffffffffffffffffffffffffffff1681526020019081526020015f20819055508015610ddc578273ffffffffffffffffffffffffffffffffffffffff168473ffffffffffffffffffffffffffffffffffffffff167f8c5be1e5ebec7d5bd14f71427d1e84f3dd0314c0f7b2291e5b200ac8c7c3b92584604051610dd391906111b6565b60405180910390a35b50505050565b5f73ffffffffffffffffffffffffffffffffffffffff168373ffffffffffffffffffffffffffffffffffffffff1603610e32578060025f828254610e269190611401565b92505081905550610f00565b5f805f8573ffffffffffffffffffffffffffffffffffffffff1673ffffffffffffffffffffffffffffffffffffffff1681526020019081526020015f2054905081811015610ebb578381836040517fe450d38c000000000000000000000000000000000000000000000000000000008152600401610eb29392919061149c565b60405180910390fd5b8181035f808673ffffffffffffffffffffffffffffffffffffffff1673ffffffffffffffffffffffffffffffffffffffff1681526020019081526020015f2081905550505b5f73ffffffffffffffffffffffffffffffffffffffff168273ffffffffffffffffffffffffffffffffffffffff1603610f47578060025f8282540392505081905550610f91565b805f808473ffffffffffffffffffffffffffffffffffffffff1673ffffffffffffffffffffffffffffffffffffffff1681526020019081526020015f205f82825401925050819055505b8173ffffffffffffffffffffffffffffffffffffffff168373ffffffffffffffffffffffffffffffffffffffff167fddf252ad1be2c89b69c2b068fc378daa952ba7f163c4a11628f55a4df523b3ef83604051610fee91906111b6565b60405180910390a3505050565b5f8115159050919050565b61100f81610ffb565b82525050565b5f6020820190506110285f830184611006565b92915050565b5f81519050919050565b5f82825260208201905092915050565b5f5b8381101561106557808201518184015260208101905061104a565b5f8484015250505050565b5f601f19601f8301169050919050565b5f61108a8261102e565b6110948185611038565b93506110a4818560208601611048565b6110ad81611070565b840191505092915050565b5f6020820190508181035f8301526110d08184611080565b905092915050565b5f80fd5b5f73ffffffffffffffffffffffffffffffffffffffff82169050919050565b5f611105826110dc565b9050919050565b611115816110fb565b811461111f575f80fd5b50565b5f813590506111308161110c565b92915050565b5f819050919050565b61114881611136565b8114611152575f80fd5b50565b5f813590506111638161113f565b92915050565b5f806040838503121561117f5761117e6110d8565b5b5f61118c85828601611122565b925050602061119d85828601611155565b9150509250929050565b6111b081611136565b82525050565b5f6020820190506111c95f8301846111a7565b92915050565b5f805f606084860312156111e6576111e56110d8565b5b5f6111f386828701611122565b935050602061120486828701611122565b925050604061121586828701611155565b9150509250925092565b5f60ff82169050919050565b6112348161121f565b82525050565b5f60208201905061124d5f83018461122b565b92915050565b5f60208284031215611268576112676110d8565b5b5f61127584828501611155565b91505092915050565b5f60208284031215611293576112926110d8565b5b5f6112a084828501611122565b91505092915050565b6112b2816110fb565b82525050565b5f6020820190506112cb5f8301846112a9565b92915050565b5f80604083850312156112e7576112e66110d8565b5b5f6112f485828601611122565b925050602061130585828601611122565b9150509250929050565b7f4e487b71000000000000000000000000000000000000000000000000000000005f52602260045260245ffd5b5f600282049050600182168061135357607f821691505b6020821081036113665761136561130f565b5b50919050565b7f4d696e74696e672069732066696e6973686564000000000000000000000000005f82015250565b5f6113a0601383611038565b91506113ab8261136c565b602082019050919050565b5f6020820190508181035f8301526113cd81611394565b9050919050565b7f4e487b71000000000000000000000000000000000000000000000000000000005f52601160045260245ffd5b5f61140b82611136565b915061141683611136565b925082820190508082111561142e5761142d6113d4565b5b92915050565b7f576f756c6420657863656564206d617820737570706c790000000000000000005f82015250565b5f611468601783611038565b915061147382611434565b602082019050919050565b5f6020820190508181035f8301526114958161145c565b9050919050565b5f6060820190506114af5f8301866112a9565b6114bc60208301856111a7565b6114c960408301846111a7565b94935050505056fea2646970667358221220abcde2dc83c27fe7ef5f7d4aaa5d73cafb2a6cc025115197f9d04222040e90a464736f6c63430008150033",
  "immutableReferences": {},
  "source": "// SPDX-License-Identifier: MIT\npragma solidity ^0.8.0;\n\nimport \"@openzeppelin/contracts/token/ERC20/ERC20.sol\";\nimport \"@openzeppelin/contracts/access/Ownable.sol\";\n\ncontract Uranium42 is ERC20, Ownable {\n    uint256 private _maxSupply;\n    bool public mintingFinished = false;\n\n    event MintingFinished();\n    event TokensMinted(address indexed to, uint256 amount);\n    event TokensBurned(address indexed from, uint256 amount);\n\n    constructor(uint256 initialSupply) \n        ERC20(\"Uranium42\", \"U42\") \n        Ownable(msg.sender)  \n    {\n        _maxSupply = 42000 * 10**decimals();\n        _mint(msg.sender, initialSupply * 10**decimals());\n    }\n\n    function decimals() public pure override returns (uint8) {\n        return 18;\n    }\n\n    function mint(address to, uint256 amount) public onlyOwner {\n        require(!mintingFinished, \"Minting is finished\");\n        require(totalSupply() + amount <= _maxSupply, \"Would exceed max supply\");\n        _mint(to, amount);\n        emit TokensMinted(to, amount);\n    }\n\n    function burn(uint256 amount) public {\n        _burn(msg.sender, amount);\n        emit TokensBurned(msg.sender, amount);\n    }\n\n    function finishMinting() public onlyOwner {\n        mintingFinished = true;\n        emit MintingFinished();\n    }\n\n    function maxSupply() public view returns (uint256) {\n        return _maxSupply;\n    }\n}",
  "sourcePath": "/Users/feliciencatteau/Documents/42/Tokenizer/contracts/Uranium42.sol",
  "compiler": {
    "name": "solc",
    "version": "0.8.21+commit.d9974bed.Emscripten.clang"
  },
  "schemaVersion": "3.4.16",
  "updatedAt": "2024-12-11T11:11:51.092Z",
  "networkType": "ethereum",
  "devdoc": {
    "errors": {
      "ERC20InsufficientAllowance(address,uint256,uint256)": [
        {
          "details": "Indicates a failure with the `spender`s `allowance`. Used in transfers.",
          "params": {
            "allowance": "Amount of tokens a `spender` is allowed to operate with.",
            "needed": "Minimum amount required to perform a transfer.",
            "spender": "Address that may be allowed to operate on tokens without being their owner."
          }
        }
      ],
      "ERC20InsufficientBalance(address,uint256,uint256)": [
        {
          "details": "Indicates an error related to the current `balance` of a `sender`. Used in transfers.",
          "params": {
            "balance": "Current balance for the interacting account.",
            "needed": "Minimum amount required to perform a transfer.",
            "sender": "Address whose tokens are being transferred."
          }
        }
      ],
      "ERC20InvalidApprover(address)": [
        {
          "details": "Indicates a failure with the `approver` of a token to be approved. Used in approvals.",
          "params": {
            "approver": "Address initiating an approval operation."
          }
        }
      ],
      "ERC20InvalidReceiver(address)": [
        {
          "details": "Indicates a failure with the token `receiver`. Used in transfers.",
          "params": {
            "receiver": "Address to which tokens are being transferred."
          }
        }
      ],
      "ERC20InvalidSender(address)": [
        {
          "details": "Indicates a failure with the token `sender`. Used in transfers.",
          "params": {
            "sender": "Address whose tokens are being transferred."
          }
        }
      ],
      "ERC20InvalidSpender(address)": [
        {
          "details": "Indicates a failure with the `spender` to be approved. Used in approvals.",
          "params": {
            "spender": "Address that may be allowed to operate on tokens without being their owner."
          }
        }
      ],
      "OwnableInvalidOwner(address)": [
        {
          "details": "The owner is not a valid owner account. (eg. `address(0)`)"
        }
      ],
      "OwnableUnauthorizedAccount(address)": [
        {
          "details": "The caller account is not authorized to perform an operation."
        }
      ]
    },
    "events": {
      "Approval(address,address,uint256)": {
        "details": "Emitted when the allowance of a `spender` for an `owner` is set by a call to {approve}. `value` is the new allowance."
      },
      "Transfer(address,address,uint256)": {
        "details": "Emitted when `value` tokens are moved from one account (`from`) to another (`to`). Note that `value` may be zero."
      }
    },
    "kind": "dev",
    "methods": {
      "allowance(address,address)": {
        "details": "See {IERC20-allowance}."
      },
      "approve(address,uint256)": {
        "details": "See {IERC20-approve}. NOTE: If `value` is the maximum `uint256`, the allowance is not updated on `transferFrom`. This is semantically equivalent to an infinite approval. Requirements: - `spender` cannot be the zero address."
      },
      "balanceOf(address)": {
        "details": "See {IERC20-balanceOf}."
      },
      "decimals()": {
        "details": "Returns the number of decimals used to get its user representation. For example, if `decimals` equals `2`, a balance of `505` tokens should be displayed to a user as `5.05` (`505 / 10 ** 2`). Tokens usually opt for a value of 18, imitating the relationship between Ether and Wei. This is the default value returned by this function, unless it's overridden. NOTE: This information is only used for _display_ purposes: it in no way affects any of the arithmetic of the contract, including {IERC20-balanceOf} and {IERC20-transfer}."
      },
      "name()": {
        "details": "Returns the name of the token."
      },
      "owner()": {
        "details": "Returns the address of the current owner."
      },
      "renounceOwnership()": {
        "details": "Leaves the contract without owner. It will not be possible to call `onlyOwner` functions. Can only be called by the current owner. NOTE: Renouncing ownership will leave the contract without an owner, thereby disabling any functionality that is only available to the owner."
      },
      "symbol()": {
        "details": "Returns the symbol of the token, usually a shorter version of the name."
      },
      "totalSupply()": {
        "details": "See {IERC20-totalSupply}."
      },
      "transfer(address,uint256)": {
        "details": "See {IERC20-transfer}. Requirements: - `to` cannot be the zero address. - the caller must have a balance of at least `value`."
      },
      "transferFrom(address,address,uint256)": {
        "details": "See {IERC20-transferFrom}. Skips emitting an {Approval} event indicating an allowance update. This is not required by the ERC. See {xref-ERC20-_approve-address-address-uint256-bool-}[_approve]. NOTE: Does not update the allowance if the current allowance is the maximum `uint256`. Requirements: - `from` and `to` cannot be the zero address. - `from` must have a balance of at least `value`. - the caller must have allowance for ``from``'s tokens of at least `value`."
      },
      "transferOwnership(address)": {
        "details": "Transfers ownership of the contract to a new account (`newOwner`). Can only be called by the current owner."
      }
    },
    "version": 1
  },
  "userdoc": {
    "kind": "user",
    "methods": {},
    "version": 1
  }
}